:020000021000EC
:10F800000C9446FC0C9465FC0C9465FC0C9465FC13
:10F810000C9465FC0C9465FC0C9465FC0C9465FCE4
:10F820000C9465FC0C9465FC0C9465FC0C9465FCD4
:10F830000C9465FC0C9465FC0C9465FC0C9465FCC4
:10F840000C9465FC0C9465FC0C9465FC0C9465FCB4
:10F850000C9465FC0C9465FC0C9465FC0C9465FCA4
:10F860000C9465FC0C9465FC0C9465FC0C9465FC94
:10F870000C9465FC0C9465FC0C9465FC0C9465FC84
:10F880000C9465FC0C9465FC0C9465FC11241FBE63
:10F89000CFEFD0E4DEBFCDBF11E0A0E0B1E0E2E009
:10F8A000FFEF01E00BBF02C007900D92A230B1073D
:10F8B000D9F722E0A2E0B1E001C01D92AD30B2075D
:10F8C000E1F70E945EFD0C947FFF0C9400FC909188
:10F8D0000501913039F49091C00095FFFCCF8093E1
:10F8E000C6000895923031F49091C80095FFFCCF86
:10F8F0008093CE000895CF93982F959595959595E3
:10F900009595905D8F708A3014F0C7E501C0C0E313
:10F91000C80F892F0E9467FC8C2FCF910C9467FC35
:10F92000CF92DF92EF92FF92809105018130E9F44E
:10F93000C12CD12C76018091C00087FD13C08FEFC0
:10F94000C81AD80AE80AF80A81E0C81682E1D8067F
:10F950008AE7E806F10478F3E0910201F0910301EF
:10F960000995E9CF8091C60020C08230E9F4C12C0E
:10F97000D12C76018091C80087FD13C08FEFC81A83
:10F98000D80AE80AF80A81E0C81682E1D8068AE7B0
:10F99000E806F10478F3E0910201F0910301099582
:10F9A000E9CF8091CE0001C080E0FF90EF90DF9022
:10F9B000CF900895CF930E9490FCC82F0E9467FCBF
:10F9C000C13614F089EA03C0C0331CF080ED8C0FFF
:10F9D00001C08C2FCF910895CF930E94DAFCC82FDD
:10F9E0000E94DAFC90E1C99F800D1124CF91089507
:10F9F00090910501815090F0913039F42091C00030
:10FA000027FFFCCF2091C600F5CF923099F72091C7
:10FA1000C80027FFFCCF2091CE00ECCF0895CF93F4
:10FA2000C82F0E9490FC803251F484E10E9467FC50
:10FA30008C2F0E9467FC80E1CF910C9467FC809131
:10FA400004018F5F80930401853031F4E09102015D
:10FA5000F0910301CF910994CF9108950E9490FCF9
:10FA6000803231F484E10E9467FC80E10C9467FCF1
:10FA7000809104018F5F80930401853029F4E09127
:10FA80000201F0910301099408958823B1F0289AA6
:10FA90002FEF31EE94E0215030409040E1F700C06C
:10FAA000000028982FEF31EE94E021503040904034
:10FAB000E1F700C000008150E8CF089594B714BE6C
:10FAC000809160008861809360001092600091FDD9
:10FAD00005C0E0910201F0910301099581E0809356
:10FAE0000501E0E0F0E0E49120E12093C4001092F1
:10FAF000C5001092C00096E09093C20088E1809308
:10FB0000C10030910501323051F42093CC001092A5
:10FB1000CD001092C8009093CA008093C900209A2B
:10FB2000809105018D5F0E9445FDFF24F3940E94A2
:10FB300090FC803309F443C08133E1F40E9490FCCF
:10FB4000803209F0B8C184E10E9467FC81E40E9420
:10FB500067FC86E50E9467FC82E50E9467FC80E204
:10FB60000E9467FC89E40E9467FC83E50E9467FCB1
:10FB700080E598C1803439F40E9490FC8638F8F012
:10FB80000E9490FC1CC08134A9F40E9490FC803833
:10FB900011F482E003C0813821F481E00E940FFD5E
:10FBA000C6CF823811F480E1F9CF883909F03FC01F
:10FBB00083E0F4CF823431F484E10E94F8FC0E94A7
:10FBC0002EFDB5CF853411F485E0F7CF982F9D7FBA
:10FBD0009035A9F3813531F40E942EFD88E08093A1
:10FBE0006000FFCF853549F40E9490FC80930601A8
:10FBF0000E9490FC80930701E2CF8635D1F40E94E9
:10FC000090FC803389F40E9490FC0E9490FC182F95
:10FC10000E9490FC111102C08EE1C0CF113011F48E
:10FC200087E9BCCF85E0BACF83E00E94F8FC80E092
:10FC3000B5CF843609F0C8C00E9490FC80930902B9
:10FC40000E9490FC8093080280910C028E7F80932A
:10FC50000C020E9490FC853429F480910C02816092
:10FC600080930C0208E011E0809108029091090253
:10FC70009801285031402817390730F40E9490FC31
:10FC8000F80181938F01F0CF0E9490FC803209F03F
:10FC900012C180910C0280FF2AC0809106019091D0
:10FCA0000701880F991F909307018093060108E0D0
:10FCB00011E080910802909109029801285031408A
:10FCC0002817390708F07EC0F80161918F018091F3
:10FCD0000601909107010E9471FF809106019091A9
:10FCE000070101969093070180930601E2CF80916E
:10FCF0000701880F880B8F2180930B028BBF8091A7
:10FD0000060190910701880F991F90930701809336
:10FD100006018091080280FF09C08091080290913D
:10FD2000090201969093090280930802F894F999C8
:10FD3000FECF1127E0910601F0910701C8E0D1E064
:10FD40008091080290910902103091F400915700BF
:10FD500001700130D9F303E000935700E89500915A
:10FD6000570001700130D9F301E100935700E89585
:10FD7000099019900091570001700130D9F301E00A
:10FD800000935700E8951395103898F011270091CB
:10FD9000570001700130D9F305E000935700E89552
:10FDA0000091570001700130D9F301E10093570031
:10FDB000E8953296029709F0C7CF103011F00296FD
:10FDC000E5CF112484E16EC0843709F05BC00E9446
:10FDD00090FC809309020E9490FC8093080280911D
:10FDE00006019091070120910C0297FF02C022604A
:10FDF00001C02D7F20930C02880F991F909307015B
:10FE0000809306010E9490FC90910C02853411F4BD
:10FE1000916001C09E7F90930C020E9490FC803202
:10FE200009F085CE84E10E9467FC00E010E080913B
:10FE300008029091090208171907B0F520910C02E9
:10FE4000809106019091070120FF03C00E9469FF85
:10FE50000BC021FD03C0FC01849106C0A0E0B0E00E
:10FE60001196ABBFFC0187910E9467FC809106014F
:10FE700090910701019690930701809306010F5F0F
:10FE80001F4FD5CF8537A1F40E9490FC803299F4A2
:10FE900084E10E9467FC8EE10E9467FC87E90E9472
:10FEA00067FC85E00E9467FC80E10E9467FC3FCE12
:10FEB000863709F4BCCE809104018F5F80930401E2
:10FEC000853009F034CEE0910201F09103010995EB
:10FED0002ECEF999FECF92BD81BDF89A992780B5B3
:10FEE0000895262FF999FECF1FBA92BD81BD20BD7E
:10FEF0000FB6F894FA9AF99A0FBE01960895F894FD
:02FF0000FFCF31
:02FF020080007D
:040000031000F800F1
:00000001FF
